:100000000C9462000C948A000C948A000C948A0070
:100010000C948A000C948A000C948A000C948A0038
:100020000C948A000C948A000C948A000C948A0028
:100030000C948A000C948A000C948A000C948A0018
:100040000C947A040C948A000C94FA050C943D06E6
:100050000C948A000C948A000C948A000C948A00F8
:100060000C948A000C948A00000000070002010032
:100070000003040600000000000000000102040864
:100080001020408001020408102001020408102002
:10009000040404040404040402020202020203032E
:1000A00003030303000000002300260029000000D2
:1000B0000000250028002B0000000000240027007D
:1000C0002A00FC0611241FBECFEFD4E0DEBFCDBF57
:1000D00011E0A0E0B1E0EEEBF3E102C005900D927B
:1000E000A831B107D9F721E0A8E1B1E001C01D9224
:1000F000A53DB207E1F710E0C2E6D0E004C02197C9
:10010000FE010E941E09C136D107C9F70E949B0754
:100110000C94DD090C94000060E082E00E9422044F
:1001200082E090E00E941B0561E082E00E942204D0
:100130008AE090E00E941B0560E082E00E942204B9
:1001400020E432E44FE050E061E083E00E942A03C3
:100150000E94D70726E933E44BE05DE30E9465087F
:1001600020E030E040E05FE30E9465080E94A807BD
:10017000089560E085E10E94220482E090E00E9400
:100180001B0561E085E10E9422048AE090E00E9464
:100190001B0560E085E10E94220420E432E44FE088
:1001A00050E061E084E10E942A030E94D70726E91B
:1001B00033E44BE05DE30E94650820E030E040E07E
:1001C0005FE30E9465080E94A80708956FEF70E042
:1001D00086E00E94CB0260E070E08AE00E94CB02E1
:1001E0006FEF70E085E00E94CB0260E070E089E094
:1001F0000C94CB0260E070E086E00E94CB026FEFCF
:1002000070E08AE00E94CB0260E070E085E00E942E
:10021000CB026FEF70E089E00C94CB0260E070E0FD
:1002200086E00E94CB026FEF70E08AE00E94CB0272
:100230006FEF70E085E00E94CB0260E070E089E043
:100240000C94CB026FEF70E086E00E94CB0260E07E
:1002500070E08AE00E94CB0260E070E085E00E94DE
:10026000CB026FEF70E089E00C94CB02882329F079
:1002700061110CC00E940E0104C06623B9F00E94F7
:10028000220168EE73E080E090E00EC00E94FA0068
:100290006CEB72E080E090E00E94F5040E940E0199
:1002A00068EC70E080E090E00C94F5040895CF9243
:1002B000DF92EF92FF92C0901E01D0901F01E0905C
:1002C0002001F0902101C616D706E806F90608F0CD
:1002D0004CC06B017C01809104012AE030E040E0D9
:1002E00050E0863439F561E070E080E090E00E94F3
:1002F00079079B01AC01ACE2B1E00E941309C60E84
:10030000D71EE81EF91EC0921E01D0921F01E09276
:100310002001F092210122E030E040E050E060E076
:1003200070E0CB010E947907672B11F48CE41BC0AD
:1003300082E519C061E070E080E090E00E947907FA
:100340009B01AC01A4EFB1E00E941309C60ED71EB9
:10035000E81EF91EC0921E01D0921F01E0922001FA
:10036000F092210186E48093040180910401863497
:1003700031F4FF90EF90DF90CF900C94E6008C3436
:1003800031F4FF90EF90DF90CF900C942201FF901A
:10039000EF90DF90CF900C940E0161E086E00E9418
:1003A000E60361E08AE00E94E60361E085E00E94E6
:1003B000E60361E089E00E94E60361E08DE00E94CF
:1003C000E60360E083E00E94E60361E082E00E94D1
:1003D000E60360E084E10E94E60361E085E10E94BB
:1003E000E60340E855E260E070E08BE291E00C94B7
:1003F00078064F925F926F927F928F929F92AF9208
:10040000BF92CF92DF92EF92FF92CF93DF930E9441
:100410008C006B017C010E94B9004B015C010E94C1
:10042000C4042B013C018BE291E00E946005181688
:1004300019062CF48BE291E00E948C05C82FC93478
:1004400031F481E090E090931D0180931C01809134
:100450001C0190911D01892B09F48EC0C33539F41C
:1004600081E090E090930601809305010BC0C634B3
:1004700021F0CC3411F0C23529F41092060110920B
:100480000501DC2F8091050190910601019741F54E
:1004900061E08DE00E9422048AE0C816D104E104E4
:1004A000F10430F09AE089169104A104B10498F4A3
:1004B00061E08AE088169104A104B10408F060E0CC
:1004C00081E09AE0C916D104E104F10408F080E06B
:1004D0000E9436013DC0C301B2010E94570138C0DD
:1004E0000E94C404C0901801D0901901E0901A0134
:1004F000F0901B01DC01CB018C199D09AE09BF09ED
:1005000084369105A105B105A8F08DE00E94510443
:10051000892B11F461E001C060E08DE00E942204AB
:100520000E94C404609318017093190180931A010A
:1005300090931B01DC3439F0D23541F0D63441F4CC
:100540000E94E60005C00E94220102C00E940E0126
:100550006AE070E080E090E0DF91CF91FF90EF9053
:10056000DF90CF90BF90AF909F908F907F906F90D3
:100570005F904F900C94F504DF91CF91FF90EF9036
:10058000DF90CF90BF90AF909F908F907F906F90B3
:100590005F904F9008951F93CF93DF93182FEB0137
:1005A00061E00E94E603209711F460E004C0CF3FB1
:1005B000D10539F461E0812FDF91CF911F910C9427
:1005C0002204E12FF0E0E859FF4FE491E330F9F025
:1005D00048F4E130B9F0E230A1F584B5806284BD21
:1005E000C8BD34C0E630E9F0E73019F1E43049F530
:1005F00080918000806280938000D0938B00C093B4
:100600008A0024C084B5806884BDC7BD1FC08091A6
:100610008000806880938000D0938900C093880018
:1006200015C08091B00080688093B000C093B30083
:100630000DC08091B00080628093B000C093B40080
:1006400005C0C038D1050CF0B5CFAFCFDF91CF9149
:100650001F9108958F929F92AF92BF92CF92DF9297
:10066000EF92FF920F931F93CF93DF9390E0FC01E3
:10067000E458FF4FA491FC01E057FF4F849166239B
:1006800011F0BA2F01C0B0E089019A013F7090E0EB
:10069000880F991F8C559F4F480159014FEF841ABD
:1006A000940AA40AB40AC12CD12C7601FC01C5918C
:1006B000D49168816A23B6131AC05FEFC51AD50AB0
:1006C000E50AF50AC814D904EA04FB0479F745C021
:1006D000460157016FEF861A960AA60AB60AC01697
:1006E000D106E206F30609F438C075016401FC0185
:1006F000C591D49168816A23B613EACFB901A801E4
:100700004C195D096E097F096A017B0120E030E028
:10071000A901FC01C591D49168816A23B6130AC06E
:100720002C153D054E055F05C1F02F5F3F4F4F4F24
:100730005F4FEFCFA5E1B0E00E941309DC01CB01D0
:100740004096A11DB11DBC01CD0124E09695879571
:10075000779567952A95D1F703C060E070E0CB01EB
:10076000DF91CF911F910F91FF90EF90DF90CF908D
:10077000BF90AF909F908F900895833081F028F4C0
:10078000813099F08230A1F008958630A9F0873049
:10079000B9F08430D1F4809180008F7D03C08091C6
:1007A00080008F7780938000089584B58F7702C092
:1007B00084B58F7D84BD08958091B0008F7703C08C
:1007C0008091B0008F7D8093B0000895CF93DF9328
:1007D00090E0FC01E458FF4F2491FC01E057FF4FEB
:1007E0008491882361F190E0880F991FFC01E854FF
:1007F000FF4FC591D491FC01E255FF4FA591B491F3
:10080000611109C09FB7F89488812095822388835D
:10081000EC912E230BC0623061F49FB7F89488816D
:10082000322F309583238883EC912E2B2C939FBFFE
:1008300006C08FB7F894E8812E2B28838FBFDF91F5
:10084000CF9108951F93CF93DF93282F30E0F901C4
:10085000E859FF4F8491F901E458FF4FD491F90111
:10086000E057FF4FC491CC23C1F0162F81110E9495
:10087000BD03EC2FF0E0EE0FFF1FE255FF4FA591F7
:10088000B4919FB7F894111104C08C91D095D823DE
:1008900002C0EC91DE2BDC939FBFDF91CF911F91C3
:1008A0000895CF93DF93282F30E0F901E859FF4FE7
:1008B0008491F901E458FF4FD491F901E057FF4FBB
:1008C000C491CC2391F081110E94BD03EC2FF0E084
:1008D000EE0FFF1FEC55FF4FA591B491EC91ED2366
:1008E00081E090E021F480E002C080E090E0DF91C0
:1008F000CF9108951F920F920FB60F9211242F934C
:100900003F938F939F93AF93BF93809123019091D7
:100910002401A0912501B09126013091220123E00C
:10092000230F2D3720F40196A11DB11D05C026E827
:10093000230F0296A11DB11D209322018093230154
:1009400090932401A0932501B09326018091270163
:1009500090912801A0912901B0912A010196A11D31
:10096000B11D8093270190932801A0932901B09392
:100970002A01BF91AF919F918F913F912F910F903D
:100980000FBE0F901F9018952FB7F8946091230118
:100990007091240180912501909126012FBF089527
:1009A0003FB7F8948091270190912801A0912901E7
:1009B000B0912A0126B5A89B05C02F3F19F00196DA
:1009C000A11DB11D3FBFBA2FA92F982F8827820FD5
:1009D000911DA11DB11DBC01CD0142E0660F771F25
:1009E000881F991F4A95D1F70895CF92DF92EF9211
:1009F000FF92CF93DF936B017C010E94D004EB0147
:100A0000C114D104E104F10479F00E94D0046C1BFC
:100A10007D0B683E7340A0F381E0C81AD108E1085D
:100A2000F108C851DC4FECCFDF91CF91FF90EF90F0
:100A3000DF90CF900895019739F0880F991F880FA4
:100A4000991F02970197F1F70895789484B5826011
:100A500084BD84B5816084BD85B5826085BD85B562
:100A6000816085BDEEE6F0E0808181608083E1E811
:100A7000F0E0108280818260808380818160808349
:100A8000E0E8F0E0808181608083E1EBF0E080814C
:100A900084608083E0EBF0E0808181608083EAE71E
:100AA000F0E08081846080838081826080838081A7
:100AB000816080838081806880831092C100089566
:100AC000FC0124853585F901E05CFF4F808191812F
:100AD000329620813181821B930B8F739927089561
:100AE000DC011C96ED91FC911D97DF01A05CBF4FCE
:100AF0002D913C91119712968D919C9111972817E9
:100B0000390739F08D919C91E80FF91F808190E0B1
:100B100008958FEF9FEF0895FC01A485B585FD0131
:100B2000E05CFF4F208131813296808191812817CE
:100B3000390779F080819181A80FB91F8C912081AC
:100B400031812F5F3F4F2F7333273183208390E014
:100B500008958FEF9FEF0895FC0181A1882329F06C
:100B6000A489B5898C9186FFFBCF11A208950F93BC
:100B70001F93CF93DF93FC01A685B7858D01005CA1
:100B80001F4FE8018881998101968F739927AD01E4
:100B90004E5B5F4FEA012881398128173907D1F36D
:100BA000E80128813981A20FB31F6C93A685B78510
:100BB000A05CBF4F11969C938E93A689B7892C9108
:100BC00081E090E0078C02C0880F991F0A94E2F739
:100BD000822B8C9381E081A30488F589E02D8081AC
:100BE0008064808381E090E0DF91CF911F910F912D
:100BF000089508951F920F920FB60F9211242F930C
:100C00004F935F938F939F93EF93FF938091C000D7
:100C100082FD1CC02091C6008091D1019091D2012B
:100C20004091D3015091D40101968F7399274817B1
:100C3000590771F0E091D101F091D201EF56FE4FCA
:100C400020839093D2018093D10102C08091C6008D
:100C5000FF91EF919F918F915F914F912F910F9005
:100C60000FBE0F901F9018958BE291E00E946005D7
:100C7000892B11F00C94F90508951F920F920FB66D
:100C80000F9211242F933F938F939F93EF93FF9392
:100C900020918D0130918E0180918F019091900172
:100CA0002817390731F48091C1008F7D8093C100EE
:100CB00014C0E0918F01F0919001E35BFE4F208121
:100CC00080918F019091900101968F739927909355
:100CD000900180938F012093C600FF91EF919F9127
:100CE0008F913F912F910F900FBE0F901F901895ED
:100CF000CF92DF92EF92FF92CF93DF93EC016A01E4
:100D00007B014115514E6105710509F1EC89FD89A1
:100D100081E090E008A002C0880F991F0A94E2F7D2
:100D2000808360E079E08DE390E0A70196010E9466
:100D3000D208DA01C9010197A109B109B695A795B1
:100D4000979587959C01211580E13807A8F0EC89DB
:100D5000FD89108260E874E88EE190E0A7019601B9
:100D60000E94D208DA01C9010197A109B109B6951B
:100D7000A795979587959C01E889F9893083EA8939
:100D8000FB89208319A2EE89FF89408181E090E0F0
:100D90009C010C8C02C0220F331F0A94E2F7242B13
:100DA0002083EE89FF8940819C010D8C02C0220FB7
:100DB000331F0A94E2F7242B2083EE89FF894081B8
:100DC0009C010E8C02C0220F331F0A94E2F7242BE1
:100DD0002083EE89FF8920810F8C02C0880F991F24
:100DE0000A94E2F7809582238083DF91CF91FF9070
:100DF000EF90DF90CF900895EBE2F1E01382128242
:100E000088EE93E0A0E0B0E084839583A683B78367
:100E10008BE091E09183808381E991E095878487DD
:100E20008DE491E09787868785EC90E0918B808BAD
:100E300084EC90E0938B828B80EC90E0958B848B9C
:100E400081EC90E0978B868B82EC90E0918F808F85
:100E500086EC90E0938F828F84E0848F83E0858F8F
:100E600087E0868F85E0878F81E080A30895CF9209
:100E7000DF92EF92FF920F931F93CF93DF936C015A
:100E8000EB017B01E40EF51E00E010E0CE15DF055E
:100E900061F06991D601ED91FC910190F081E02D16
:100EA000C6010995080F191FF1CFC801DF91CF9135
:100EB0001F910F91FF90EF90DF90CF900895CF9208
:100EC000DF92EF92FF92611571058105910549F05E
:100ED0006B017C010E947E09A70196010E94F40823
:100EE00003C060E070E0CB01FF90EF90DF90CF9007
:100EF0000895CF92DF92EF92FF920F931F936217A4
:100F000073078407950784F489019A016B017C01BA
:100F1000C901B8016C197D098E099F090E945F07FC
:100F20006C0D7D1D8E1D9F1D1F910F91FF90EF90E9
:100F3000DF90CF9008950E9425050E94CD01C4E363
:100F4000D6E00E94F9012097E1F30E943406F9CF20
:100F50000E94440888F09F5798F0B92F9927B751FD
:100F6000B0F0E1F0660F771F881F991F1AF0BA954D
:100F7000C9F714C0B13091F00E945E08B1E0089545
:100F80000C945E08672F782F8827B85F39F0B93F37
:100F9000CCF3869577956795B395D9F73EF4909500
:100FA0008095709561957F4F8F4F9F4F0895E8947E
:100FB00009C097FB3EF490958095709561957F4FA1
:100FC0008F4F9F4F9923A9F0F92F96E9BB2793954F
:100FD000F695879577956795B795F111F8CFFAF45F
:100FE000BB0F11F460FF1BC06F5F7F4F8F4F9F4F90
:100FF00016C0882311F096E911C0772321F09EE8EE
:10100000872F762F05C0662371F096E8862F70E053
:1010100060E02AF09A95660F771F881FDAF7880F2D
:101020009695879597F9089597F99F6780E870E0FE
:1010300060E008959FEF80EC089500240A9416164E
:10104000170618060906089500240A9412161306B6
:10105000140605060895092E0394000C11F4882344
:1010600052F0BB0F40F4BF2B11F460FF04C06F5F60
:101070007F4F8F4F9F4F089557FD9058440F551F36
:1010800059F05F3F71F04795880F97FB991F61F00A
:101090009F3F79F087950895121613061406551F81
:1010A000F2CF4695F1DF08C0161617061806991FED
:1010B000F1CF86957105610508940895E894BB27E2
:1010C00066277727CB0197F908950E9478080C943A
:1010D0002B080E941D0838F00E94240820F0952358
:1010E00011F00C9414080C941A0811240C945F0845
:1010F0000E943C0870F3959FC1F3950F50E0551F77
:10110000629FF001729FBB27F00DB11D639FAA275C
:10111000F00DB11DAA1F649F6627B00DA11D661FAB
:10112000829F2227B00DA11D621F739FB00DA11DCC
:10113000621F839FA00D611D221F749F3327A00D86
:10114000611D231F849F600D211D822F762F6A2F22
:1011500011249F5750409AF0F1F088234AF0EE0F87
:10116000FF1FBB1F661F771F881F91505040A9F7B4
:101170009E3F510580F00C9414080C945F085F3F6B
:10118000E4F3983ED4F3869577956795B795F795F0
:10119000E7959F5FC1F7FE2B880F911D9695879568
:1011A00097F90895A1E21A2EAA1BBB1BFD010DC0E1
:1011B000AA1FBB1FEE1FFF1FA217B307E407F50707
:1011C00020F0A21BB30BE40BF50B661F771F881FE3
:1011D000991F1A9469F760957095809590959B0179
:1011E000AC01BD01CF010895052E97FB1EF40094BC
:1011F0000E940B0957FD07D00E94D20807FC03D0BC
:101200004EF40C940B0950954095309521953F4F25
:101210004F4F5F4F089590958095709561957F4FE2
:101220008F4F9F4F08950E942409A59F900DB49F52
:10123000900DA49F800D911D11240895EE0FFF1FA6
:101240000590F491E02D0994A29FB001B39FC001D5
:10125000A39F700D811D1124911DB29F700D811DE2
:101260001124911D08958F929F92AF92BF92CF92B9
:10127000DF92EF92FF92CF93DF93EC016881798147
:101280008A819B81611571058105910521F464E2D4
:1012900079ED8BE597E02DE133EF41E050E00E94DE
:1012A000F40849015A019B01AC01A7EAB1E40E948C
:1012B00013096B017C01ACEEB4EFA50194010E940F
:1012C000D809DC01CB018C0D9D1DAE1DBF1DB7FFE4
:1012D00003C00197A109B04888839983AA83BB837F
:1012E000BC01CD019F77DF91CF91FF90EF90DF9010
:1012F000CF90BF90AF909F908F9008958F929F92C4
:10130000AF92BF92CF92DF92EF92FF926091000175
:1013100070910101809102019091030161157105A5
:101320008105910521F464E279ED8BE597E02DE1EB
:1013300033EF41E050E00E94F40849015A019B015B
:10134000AC01A7EAB1E40E9413096B017C01ACEE89
:10135000B4EFA50194010E94D809DC01CB018C0DEA
:101360009D1DAE1DBF1DB7FF03C00197A109B04869
:101370008093000190930101A0930201B0930301B7
:10138000BC01CD019F77FF90EF90DF90CF90BF9091
:10139000AF909F908F90089560930001709301012A
:1013A00080930201909303010895B7FF0C941309F1
:0E13B0000E941309821B930B0895F894FFCF3F
:1013BE000100000046010000000000B7053707607D
:0813CE00058C057005AC05005B
:00000001FF
