:100000000C9451000C9479000C9479000C947900B4
:100010000C9479000C9479000C9479000C9479007C
:100020000C9479000C9479000C9479000C9479006C
:100030000C9479000C9479000C9479000C9479005C
:100040000C9479000C9479000C9479000C9479004C
:100050000C9479000C9479000C9479000C9479003C
:100060000C9479000C9479000C9479000C9479002C
:100070000C9479000C9479000C9479000C9479001C
:100080000C9479000C9479000C9479000C9479000C
:100090000C94C5040C9497040C9471040C9479008E
:1000A0005A0811241FBECFEFCDBFDFE3DEBF18E239
:1000B000A0E0B8E2E9E3F6E102C005900D92AC30B1
:1000C000B107D9F728E2ACE0B8E201C01D92A13C2B
:1000D000B207E1F710E0C1E5D0E004C02197FE01CE
:1000E0000E94D20AC035D107C9F70E946E050C9450
:1000F000D80A0C940000AF92BF92CF92DF92EF9299
:10010000FF920F931F93CF93DF936C017B018B01C1
:10011000040F151FEB015E01AE18BF08C017D10711
:1001200059F06991D601ED91FC910190F081E02D9B
:10013000C6010995892B79F7C501DF91CF911F91F0
:100140000F91FF90EF90DF90CF90BF90AF90089508
:10015000FC0154894589252F30E0842F90E0821BD3
:10016000930B541710F0CF96089501970895FC0152
:1001700092898389981761F0A389AE0FBF2FB11DB3
:1001800059968C9193899F5F9F73938B90E008950C
:100190008FEF9FEF0895FC0192898389981731F0C2
:1001A0008389E80FF11D818D90E008958FEF9FEF17
:1001B0000895FC0192892389892F90E0805C9F4FEC
:1001C000821B91098F739927089588E298E20E9413
:1001D000D90021E0892B09F420E0822F0895CF93E4
:1001E000DF93EC01E881F9810284F385E02D099524
:1001F000EC85FD8586818F738683EC85FD85858101
:100200008F7585838B898A8B198ADF91CF910895A9
:10021000CF93DF93FC0194898589C485D585981394
:1002200006C08D818F7D8D83DF91CF910895A58943
:10023000AE0FBF2FB11DA75ABF4F2C91858990E0FB
:1002400001968F739927858B80E48C83A485B5856F
:1002500012962C93948985899813E6CFA485B58549
:1002600015968C9115978F7D15968C938789882389
:10027000D9F2808D80931301178AD6CFDC011C96AA
:10028000ED91FC910FB607FE03C0258125FD04C04A
:10029000248125FD0C9408010895EF92FF920F939D
:1002A0001F93CF93DF93EC0181E0898B9C898D892B
:1002B00098131CC0AC85BD8514968C91149785FF4E
:1002C00015C012966C93AC85BD8580E414968C9312
:1002D000EC85FD8585818F7D858381E090E0DF91D0
:1002E000CF911F910F91FF90EF9008958091110190
:1002F00080FF08C080911301888F8E89809313013D
:1003000081E08F8BF62E0C8910E00F5F1F4F0F736B
:100310001127E02E8D898E1104C0CE010E943E016E
:10032000F9CFEC89EC0FFD2FF11DE75AFF4FF0825A
:100330000C8BEC85FD8585818062CECFCF93DF93DA
:10034000FC0121892223C9F0EC018091110180FF79
:1003500008C080911301808F86898093130181E00A
:10036000878BEC85FD85858185FD03C0848186FDB5
:1003700004C0CE010E943E01F4CFDF91CF910895D9
:1003800080E090E0892B29F00E94E50081110E9415
:10039000000080E090E0892B49F080E090E0892B1C
:1003A00029F00E94000081110C940000089581E062
:1003B0000895CF93DF9390E0FC01E45EF94A208139
:1003C0002F3F71F0FC01EE5FF94AA08130E2A39F5C
:1003D000D0011124BC5F6130710529F411962C9372
:1003E000DF91CF91089582539A4AEC01E881EF3F63
:1003F00089F0CD014096E80FF92FF11D9FB7F894D1
:1004000012962C9380816230710539F48860808364
:100410009FBFE6CFF0E0E0E0F1CF877FF8CF282F55
:1004200030E0F901EC54FA4AE081EE2309F1E130C1
:1004300021F0F0F0E63098F008954091010A22533F
:100440003A4AF90120812C5F81E090E001C0880FD9
:100450002A95EAF7809584238093010A089580E124
:10046000E89FF0011124E05AF54F81818F7E81834E
:100470000895FF920F931F93CF93DF93082F10E0FF
:10048000F801E45EF94AF0809FEFF916A1F0EB0164
:100490008B3210F40E940F02F801EE5FF94AE081FE
:1004A00080E2E89FF0011124FC5F80818F2159F0E8
:1004B000CD2B39F4F682DF91CF911F910F91FF90F0
:1004C0000895F582F8CFD801A253BA4A8C9130979B
:1004D00071F08F3F61F07096E80FF11D9FB7F894AF
:1004E0008081CD2B39F4877F80839FBFE4CFF0E0FC
:1004F000E0E0F4CF8860F8CF8B3210F40C9439022E
:100500000895CF92DF92EF92FF920F931F93CF93B4
:10051000DF93EC016A017B01022F8989882339F07E
:10052000E881F9810088F189E02DCE01099598894B
:100530008091E205892B8093E2051FB7F89460E073
:1005400070E281EA97E0A70196010E9453096901D0
:100550007A018FEFC81AD80AE80AF80AF694E794E5
:10056000D794C794EC85FD8586818D7F8683EC8545
:10057000FD8586818683198AA09123110A2E000C9D
:10058000BB0BA70196010E944B0920E034E040E03C
:1005900050E00E942109EC85FD85C20ED31EE41EA9
:1005A000F51EC086D186EC85FD850783EC85FD852B
:1005B0008681806C8683EC85FD8585818068858356
:1005C0008E858B3220F462E070E00E94D9018F8525
:1005D00061E070E00E947C028F858B3220F461E044
:1005E00070E00E94D9011FBFDF91CF911F910F9141
:1005F000FF90EF90DF90CF900895EF92FF920F93CE
:100600001F93CF93DF93E82EF12CF701E253FA4AC0
:10061000C081CF3FD9F18B01D82F61E070E00E94FB
:10062000D9010115110559F470E060E08D2FDF91BB
:10063000CF911F910F91FF90EF900C947C02F701E6
:10064000EC54FA4AE081E13049F010F0E63028F14C
:10065000003811054CF361E070E0E8CF8C2F90E09A
:10066000FC01EE0FFF1FE85CF54F00831183209122
:10067000010A049641E050E0BA0102C0660F771FFC
:100680008A95E2F7CB01822B8093010ADF91CF910B
:100690001F910F91FF90EF90089570E1E79FF00197
:1006A0001124E05AF54F0587818180618183EECF67
:1006B00070E060E086E00E94FD026FEF70E08AE08B
:1006C0000E94FD026FEF70E085E00E94FD0270E085
:1006D00060E089E00C94FD026FEF70E086E00E941C
:1006E000FD0270E060E08AE00E94FD0270E060E0E0
:1006F00085E00E94FD026FEF70E089E00C94FD023E
:10070000CF93DF938FB7F89420911228309113285C
:100710004091142850911528E091BA0A9091B60A98
:1007200090FF06C02F5F3F4F4F4F5F4FE091BA0AD7
:100730008FBFA0911C28B0911D28C0911A28D0917C
:100740001B280E944009EC9F9001ED9F300D112461
:10075000620F731F811D911DDF91CF9108958F92BC
:100760009F92AF92BF92CF92DF92EF92FF924B0196
:100770005C010E9480036B017C01A8EEB3E0A5013F
:1007800094010E944009C60ED71EE81EF91EC61627
:10079000D706E806F90618F40E948003F8CF0E94F5
:1007A00080036C157D058E059F05C8F3FF90EF90C3
:1007B000DF90CF90BF90AF909F908F9008952FB70C
:1007C000F89460910E2870910F28809110289091D4
:1007D00011282FBF08956FEF70E086E00E94FD02A0
:1007E00070E060E08AE00E94FD026FEF70E085E05B
:1007F0000E94FD0270E060E089E00C94FD02DC01E3
:10080000ED91FC910684F785E02D23E030E009941A
:10081000CF92DF92EF92FF920F931F93CF9390E0CE
:10082000FC01E45EF94AF0808E5F994AFC01C081C8
:1008300060910328709104288091052890910628E2
:1008400020E432E44FE050E00E94530960E472E497
:100850008FE090E00E94AE0A2CE030E040E050E0F3
:100860000E94530989019A0190E080E0C63028F483
:10087000F0E2CF9FC00111249C5F4F2D6F2D089691
:100880000E942905611571058105910511F16B0122
:100890007C012FEFC21AD20AE20AF20A84E0CC0CE1
:1008A000DD1CEE1CFF1C8A95D1F760910328709126
:1008B0000428809105289091062820E432E44FE036
:1008C00050E00E945309C701B6010E945309CA01B2
:1008D000B901CF911F910F91FF90EF90DF90CF90D2
:1008E00008951F920F920FB60F9211242F933F93EA
:1008F0004F935F936F937F938F939F93AF93BF9328
:10090000EF93FF9388E298E20E940801FF91EF9134
:10091000BF91AF919F918F917F916F915F914F9117
:100920003F912F910F900FBE0F901F9018951F921F
:100930000F920FB60F9211242F938F939F93EF93E3
:10094000FF93E0913428F0913528818181FD1BC00F
:10095000908180913A288F5F8F7320913B28821776
:1009600041F0E0913A28F0E0E85DF74D918F8093F7
:100970003A28FF91EF919F918F912F910F900FBE89
:100980000F901F9018958081F4CF1F920F920FB691
:100990000F9211242F933F934F935F936F937F9305
:1009A0008F939F93AF93BF9340910E2850910F2840
:1009B000609110287091112880910C2890910D2839
:1009C0002091182830911928420F531F611D711D65
:1009D0002091162830911728820F931F883E23E01C
:1009E000920730F0885E93404F5F5F4F6F4F7F4FAD
:1009F00080930C2890930D2840930E2850930F2835
:100A000060931028709311288091122890911328D8
:100A1000A0911428B09115280196A11DB11D8093B5
:100A2000122890931328A0931428B093152881E0DE
:100A30008093B60ABF91AF919F918F917F916F91F3
:100A40005F914F913F912F910F900FBE0F901F908C
:100A50001895CF92DF92EF92FF920F931F93E82F9A
:100A6000F92F05C0015011092109310961F1908167
:100A700096239417B9F305C00150110921093109D2
:100A800011F1908196239413F7CFC12CD12CE12C36
:100A9000F12C0AC08FEFC81AD80AE80AF80A0C1518
:100AA0001D052E053F0579F080818623841791F37B
:100AB0006C2D7D2D8E2D9F2D1F910F91FF90EF900E
:100AC000DF90CF90089560E070E080E090E01F91AB
:100AD0000F91FF90EF90DF90CF900895CF93DF9329
:100AE000CDB7DEB7A997CDBFDEBF88ED90E084BF5C
:100AF0009093610080E094E2A4EFB0E0809303283B
:100B000090930428A0930528B093062880910206AC
:100B100086608093020680910006816080930006C3
:100B2000809102068F7C809302068091A0008F78CE
:100B30008093A0008091020680618093020610924B
:100B4000E20581E08093E40583E08093010A8FEF62
:100B500090E08093260A9093270A80E890E08093A3
:100B6000380A9093390A80933A0A90933B0A80930B
:100B70003C0A90933D0A8BE08093000A8091E50542
:100B800081608093E5058091E50582608093E505AD
:100B9000E0E8FAE037E02FEF90E885E03183248742
:100BA000958780837096E03C4AE0F407B9F780E0CF
:100BB00094E080931C2890931D2880911C2890918C
:100BC0001D282FEF30E0B9010E94BE0A60931A2859
:100BD00070931B2880911C2890911D28E8EEF3E06B
:100BE000BF010E94BE0A6093182870931928809153
:100BF0001C2890911D28BF010E94BE0A80931628D0
:100C0000909317282093BC0A3093BD0A8091B50AAF
:100C100081608093B50A84E08093B00A8091B00A25
:100C200081608093B00A789461E070E086E00E9471
:100C3000D90161E070E08AE00E94D90161E070E0D2
:100C400085E00E94D90161E070E089E00E94D9014D
:100C500061E070E08DE00E94D90170E060E083E027
:100C60000E94D90161E070E082E00E94D90170E049
:100C700060E084E10E94D90161E070E085E10E94BA
:100C8000D90140E855E260E070E088E298E20E9415
:100C9000FF0383E0282E312C99E0492E512C612C42
:100CA000712C70E060E082E00E943902C10101977E
:100CB000F1F761E070E082E00E94390283E290E0A7
:100CC0000197F1F770E060E082E00E94390283E072
:100CD0000E9408046EA37FA388A799A770E060E034
:100CE00085E10E943902C1010197F1F761E070E0EE
:100CF00085E10E94390283E290E00197F1F770E00C
:100D000060E085E10E94390284E10E9408044B0101
:100D10005C010E94DF036B017C0188E298E20E9483
:100D2000D900181619062CF488E298E20E94B70040
:100D3000182F193431F481E090E0809326289093A5
:100D400027288091262890912728892B09F409C10A
:100D5000133509F0A9C08091012890910228892BB0
:100D6000B1F481E090E080930128909302281093E1
:100D700000280E94DF036059784E8F4F9F4F609389
:100D800022287093232880932428909325288091EB
:100D9000012890910228019709F03FC1C501B401D3
:100DA0000E94B30926E933E44BE05DE30E94190A8F
:100DB00020E030E040E05FE30E94190A0E948409CD
:100DC0004B015C018091222890912328A091242836
:100DD000B09125288AA39BA3ACA3BDA361E070E0DA
:100DE0008DE00E9439026EA17FA188A599A50E947D
:100DF000B30926E933E44BE05DE30E94190A20E0E1
:100E000030E040E05FE30E94190A0E9484096A30E2
:100E100071058105910508F453C0009100289AE0FE
:100E200089169104A104B10408F49EC08AA19BA173
:100E3000ACA1BDA18C159D05AE05BF0568F50634B6
:100E400009F0C0C00E94C908A30192010E942109B3
:100E50009B01AC012F5F3F4F4F4F5F4FACE2B1E0C2
:100E60000E944009C60ED71EE81EF91EC092222815
:100E7000D0922328E0922428F09225280E94C908C5
:100E800022E030E040E050E00E942109672B09F0A9
:100E900095C09CE49093002880910028833509F048
:100EA000B1C00E94580322C0163429F01C3419F036
:100EB000123509F06CCF109201281092022867CFEA
:100EC000AAE08A169104A104B10408F456C00E9455
:100ED0005803809100288C3419F4B2E5B0930028AF
:100EE00068EE73E080E090E00E94AF03209122283A
:100EF00030912328409124285091252819A27E0161
:100F0000E1E2EE0EF11CCA01B9012AE030E040E056
:100F100050E00E945309605DD7016E937D01211559
:100F200031054105510579F7109769F0FD010190F0
:100F30000020E9F73197AF014A1B5B0BBD0188E246
:100F400098E20E947B0042E050E066E376E588E2AA
:100F500098E20E947B006AE070E080E090E00E94EE
:100F6000AF030E94C0019DCE0E946C03023509F0C0
:100F7000B7CFECE4E0930028B3CF70E060E086E008
:100F80000E94FD026FEF70E08AE00E94FD0270E0B7
:100F900060E085E00E94FD026FEF70E089E00E9452
:100FA000FD026CEB72E080E090E00E94AF030E94D3
:100FB000580368EC70E080E090E096CFA2E5A09343
:100FC00000286ACF0E94C908A30192010E9421094A
:100FD0009B01AC012F5F3F4F4F4F5F4FA4EFB1E03C
:100FE0000E944009C60ED71EE81EF91EC092222894
:100FF000D0922328E0922428F0922528B6E4B093DA
:1010000000284ACF863419F40E94EB036FCF8C344A
:1010100009F047CF0E946C0369CF0E94DF03C090A4
:101020001E28D0901F28E0902028F09021286C19CD
:101030007D098E099F096436710581059105C0F00F
:101040008DE00E940F028091880461E070E082FFD1
:1010500002C070E060E08DE00E9439020E94DF0370
:1010600060931E2870931F28809320289093212836
:10107000163451F2C4F4153409F038CF70E060E052
:1010800086E00E94FD0270E060E08AE00E94FD02BE
:1010900070E060E085E00E94FD0270E060E089E0C1
:1010A0000E94FD0223CF1C3409F4B4CF123509F499
:1010B000F8CE1CCFE8E2F8E21282138288EE93E0C9
:1010C000A0E0B0E084839583A683B7838CEE95E59A
:1010D0008083918380E698E08487958788E186877E
:1010E00089E1878780E4808B128A138A148A158AA3
:1010F00086E2868B178A108E08958F929F92AF9208
:10110000BF92CF92DF92EF92FF92CF93DF93EC01E9
:10111000688179818A819B816115710581059105BD
:1011200021F464E279ED8BE597E02DE133EF41E0C6
:1011300050E00E94210949015A019B01AC01A7EA34
:10114000B1E40E9440096B017C01ACEEB4EFA50153
:1011500094010E944E09C60ED71EE81EF91EF7FE26
:1011600006C081E0C81AD108E10880E8F80AC88200
:10117000D982EA82FB82C701B6019F77DF91CF91C6
:10118000FF90EF90DF90CF90BF90AF909F908F90A7
:1011900008958F929F92AF92BF92CF92DF92EF927B
:1011A000FF926091072870910828809109289091FA
:1011B0000A28611571058105910521F464E279ED34
:1011C0008BE597E02DE133EF41E050E00E942109EB
:1011D00049015A019B01AC01A7EAB1E40E94400910
:1011E0006B017C01ACEEB4EFA50194010E944E09A5
:1011F000C60ED71EE81EF91EF7FE06C081E0C81A0B
:10120000D108E10880E8F80AC0920728D09208289F
:10121000E0920928F0920A28C701B6019F77FF9053
:10122000EF90DF90CF90BF90AF909F908F900895F8
:1012300060930728709308288093092890930A28C0
:101240000895052E97FB1EF400940E94380957FD5F
:1012500007D00E94530907FC03D04EF40C943809C0
:1012600050954095309521953F4F4F4F5F4F0895D2
:1012700090958095709561957F4F8F4F9F4F089502
:101280000E947509A59F900DB49F900DA49F800D9D
:10129000911D11240895B7FF0C9440090E94400944
:1012A000821B930B0895A1E21A2EAA1BBB1BFD0102
:1012B0000DC0AA1FBB1FEE1FFF1FA217B307E40735
:1012C000F50720F0A21BB30BE40BF50B661F771F8D
:1012D000881F991F1A9469F760957095809590956D
:1012E0009B01AC01BD01CF010895A29FB001B39F46
:1012F000C001A39F700D811D1124911DB29F700D1F
:10130000811D1124911D08950E94F80988F09F57AE
:1013100098F0B92F9927B751B0F0E1F0660F771F19
:10132000881F991F1AF0BA95C9F714C0B13091F00F
:101330000E94120AB1E008950C94120A672F782FC8
:101340008827B85F39F0B93FCCF3869577956795D4
:10135000B395D9F73EF490958095709561957F4F40
:101360008F4F9F4F0895E89409C097FB3EF49095E6
:101370008095709561957F4F8F4F9F4F9923A9F06E
:10138000F92F96E9BB279395F695879577956795FD
:10139000B795F111F8CFFAF4BB0F11F460FF1BC041
:1013A0006F5F7F4F8F4F9F4F16C0882311F096E9D4
:1013B00011C0772321F09EE8872F762F05C0662382
:1013C00071F096E8862F70E060E02AF09A95660F3B
:1013D000771F881FDAF7880F9695879597F90895F4
:1013E00057FD9058440F551F59F05F3F71F04795D6
:1013F000880F97FB991F61F09F3F79F087950895BB
:10140000121613061406551FF2CF4695F1DF08C0D9
:10141000161617061806991FF1CF869571056105F6
:1014200008940895E894BB2766277727CB0197F99E
:1014300008950E942C0A0C949D0A0E948F0A38F08D
:101440000E94960A20F0952311F00C94860A0C94C1
:101450008C0A11240C94130A0E94F00970F3959FD2
:10146000C1F3950F50E0551F629FF001729FBB279B
:10147000F00DB11D639FAA27F00DB11DAA1F649F37
:101480006627B00DA11D661F829F2227B00DA11DEA
:10149000621F739FB00DA11D621F839FA00D611D70
:1014A000221F749F3327A00D611D231F849F600D91
:1014B000211D822F762F6A2F11249F5750409AF0BA
:1014C000F1F088234AF0EE0FFF1FBB1F661F771F46
:1014D000881F91505040A9F79E3F510580F00C9411
:1014E000860A0C94130A5F3FE4F3983ED4F3869582
:1014F00077956795B795F795E7959F5FC1F7FE2BB1
:10150000880F911D9695879597F9089597F99F678C
:1015100080E870E060E008959FEF80EC089500247B
:101520000A941616170618060906089500240A9448
:1015300012161306140605060895092E0394000CCE
:1015400011F4882352F0BB0F40F4BF2B11F460FF5D
:1015500004C06F5F7F4F8F4F9F4F0895DB018F93C4
:101560009F930E944009BF91AF91A29F800D911D52
:10157000A39F900DB29F900D11240895AA1BBB1B31
:1015800051E107C0AA1FBB1FA617B70710F0A61B83
:10159000B70B881F991F5A95A9F780959095BC01A4
:1015A000CD010895EE0FFF1F0590F491E02D0994F1
:0415B000F894FFCFDD
:1015B400000000030001020000010100000000001F
:1015C4000000000000000000000005040005060201
:1015D40004010300010001020302010002030405E7
:1015E40002030504000000004D017B00D900B70090
:1015F400CB009E01FF038102EF00D701A800020285
:1016040000050201050004010104040403030303AB
:10161400050503030000010120100120400410020D
:10162400080102010204080402010408102004084D
:0516340020100D0A006A
:0C1639004601000024F400010000000045
:00000001FF
